{"abi":[{"type":"constructor","inputs":[{"name":"accountFactory","type":"address","internalType":"address"},{"name":"sequencerUptimeOracle_","type":"address","internalType":"address"}],"stateMutability":"nonpayable"},{"type":"function","name":"auctionInformation","inputs":[{"name":"","type":"address","internalType":"address"}],"outputs":[{"name":"startDebt","type":"uint128","internalType":"uint128"},{"name":"base","type":"uint64","internalType":"uint64"},{"name":"cutoffTime","type":"uint32","internalType":"uint32"},{"name":"startTime","type":"uint32","internalType":"uint32"},{"name":"creditor","type":"address","internalType":"address"},{"name":"minimumMargin","type":"uint96","internalType":"uint96"},{"name":"startPriceMultiplier","type":"uint16","internalType":"uint16"},{"name":"minPriceMultiplier","type":"uint16","internalType":"uint16"},{"name":"inAuction","type":"bool","internalType":"bool"}],"stateMutability":"view"},{"type":"function","name":"bid","inputs":[{"name":"account","type":"address","internalType":"address"},{"name":"bidAmounts","type":"uint256[]","internalType":"uint256[]"},{"name":"endAuction_","type":"bool","internalType":"bool"},{"name":"data","type":"bytes","internalType":"bytes"}],"outputs":[],"stateMutability":"nonpayable"},{"type":"function","name":"endAuction","inputs":[{"name":"account","type":"address","internalType":"address"}],"outputs":[],"stateMutability":"nonpayable"},{"type":"function","name":"getAuctionInformationArrays","inputs":[{"name":"account","type":"address","internalType":"address"}],"outputs":[{"name":"assetAddresses","type":"address[]","internalType":"address[]"},{"name":"assetIds","type":"uint256[]","internalType":"uint256[]"},{"name":"assetAmounts","type":"uint256[]","internalType":"uint256[]"},{"name":"assetShares","type":"uint32[]","internalType":"uint32[]"}],"stateMutability":"view"},{"type":"function","name":"getBidPrice","inputs":[{"name":"account","type":"address","internalType":"address"},{"name":"askedAssetAmounts","type":"uint256[]","internalType":"uint256[]"}],"outputs":[{"name":"price","type":"uint256","internalType":"uint256"},{"name":"inAuction","type":"bool","internalType":"bool"}],"stateMutability":"view"},{"type":"function","name":"liquidateAccount","inputs":[{"name":"account","type":"address","internalType":"address"}],"outputs":[],"stateMutability":"nonpayable"},{"type":"function","name":"owner","inputs":[],"outputs":[{"name":"","type":"address","internalType":"address"}],"stateMutability":"view"},{"type":"function","name":"setAccountRecipient","inputs":[{"name":"creditor","type":"address","internalType":"address"},{"name":"accountRecipient","type":"address","internalType":"address"}],"outputs":[],"stateMutability":"nonpayable"},{"type":"function","name":"setAuctionCurveParameters","inputs":[{"name":"halfLifeTime","type":"uint32","internalType":"uint32"},{"name":"cutoffTime_","type":"uint32","internalType":"uint32"},{"name":"startPriceMultiplier_","type":"uint16","internalType":"uint16"},{"name":"minPriceMultiplier_","type":"uint16","internalType":"uint16"}],"outputs":[],"stateMutability":"nonpayable"},{"type":"function","name":"setSequencerUptimeOracle","inputs":[{"name":"sequencerUptimeOracle_","type":"address","internalType":"address"}],"outputs":[],"stateMutability":"nonpayable"},{"type":"function","name":"transferOwnership","inputs":[{"name":"newOwner","type":"address","internalType":"address"}],"outputs":[],"stateMutability":"nonpayable"},{"type":"event","name":"AuctionCurveParametersSet","inputs":[{"name":"base","type":"uint64","indexed":false,"internalType":"uint64"},{"name":"cutoffTime","type":"uint32","indexed":false,"internalType":"uint32"},{"name":"startPriceMultiplier","type":"uint16","indexed":false,"internalType":"uint16"},{"name":"minPriceMultiplier","type":"uint16","indexed":false,"internalType":"uint16"}],"anonymous":false},{"type":"event","name":"OwnershipTransferred","inputs":[{"name":"user","type":"address","indexed":true,"internalType":"address"},{"name":"newOwner","type":"address","indexed":true,"internalType":"address"}],"anonymous":false},{"type":"error","name":"AuctionOngoing","inputs":[]},{"type":"error","name":"CutOffTooHigh","inputs":[]},{"type":"error","name":"CutOffTooLow","inputs":[]},{"type":"error","name":"EndAuctionFailed","inputs":[]},{"type":"error","name":"HalfLifeTimeTooHigh","inputs":[]},{"type":"error","name":"HalfLifeTimeTooLow","inputs":[]},{"type":"error","name":"IsNotAnAccount","inputs":[]},{"type":"error","name":"MultiplierTooHigh","inputs":[]},{"type":"error","name":"MultiplierTooLow","inputs":[]},{"type":"error","name":"NotAuthorized","inputs":[]},{"type":"error","name":"NotForSale","inputs":[]},{"type":"error","name":"OracleNotReverting","inputs":[]},{"type":"error","name":"OracleReverting","inputs":[]},{"type":"error","name":"SequencerDown","inputs":[]}],"bytecode":{"object":"0x60a06040526001805534801562000014575f80fd5b50604051620035723803806200357283398101604081905262000037916200020d565b5f80546001600160a01b031916339081178255604051909182917f8be0079c531659141344cd1fd0a4f28419497f9722a3daafe3b4186f6b6457e0908290a3506001600160a01b03828116608052600380546001600160a01b0319169183169190911790555f620000a762000147565b50905080620000c957604051638338a51960e01b815260040160405180910390fd5b600280546001600160801b0319166f17703a98000038400de0079a8d2fa2c617905560408051670de0079a8d2fa2c681526138406020820152613a9881830152611770606082015290517f290b8cac4617961f81e060779d51234b9dbd4aeaca4c6729093e4eb1add32114916080908290030190a1505050620002ab565b5f8060035f9054906101000a90046001600160a01b03166001600160a01b031663feaf968c6040518163ffffffff1660e01b815260040160a060405180830381865afa925050508015620001ba575060408051601f3d908101601f19168201909252620001b7918101906200025a565b60015b15620001ed5783600103620001e15760405162032b3d60e81b815260040160405180910390fd5b50600195509093505050505b9091565b80516001600160a01b038116811462000208575f80fd5b919050565b5f80604083850312156200021f575f80fd5b6200022a83620001f1565b91506200023a60208401620001f1565b90509250929050565b80516001600160501b038116811462000208575f80fd5b5f805f805f60a086880312156200026f575f80fd5b6200027a8662000243565b94506020860151935060408601519250606086015191506200029f6080870162000243565b90509295509295909350565b6080516132ae620002c45f395f610af101526132ae5ff3fe608060405234801561000f575f80fd5b50600436106100a6575f3560e01c80638ac5d4a31161006e5780638ac5d4a3146101395780638da5cb5b1461014c57806396ed48e714610176578063c933602114610289578063de5fb7bb1461029c578063f2fde38b146102af575f80fd5b80630c404c2c146100aa578063189eddd7146100bf5780632872abbc146100eb5780633d8efb06146100fe57806365fd11b414610111575b5f80fd5b6100bd6100b83660046128a4565b6102c2565b005b6100d26100cd366004612909565b61053c565b6040516100e29493929190612965565b60405180910390f35b6100bd6100f9366004612909565b6106e3565b6100bd61010c366004612b1e565b6107c8565b61012461011f366004612bd0565b610a4f565b604080519283529015156020830152016100e2565b6100bd610147366004612909565b610aab565b5f5461015e906001600160a01b031681565b6040516001600160a01b0390911681526020016100e2565b610210610184366004612909565b60056020525f90815260409020805460018201546002909201546001600160801b03821692600160801b83046001600160401b031692600160c01b810463ffffffff90811693600160e01b90920416916001600160a01b03811691600160a01b9091046001600160601b03169061ffff8082169162010000810490911690640100000000900460ff1689565b604080516001600160801b03909a168a526001600160401b0390981660208a015263ffffffff968716978901979097529490931660608701526001600160a01b0390911660808601526001600160601b031660a085015261ffff90811660c08501521660e08301521515610100820152610120016100e2565b6100bd610297366004612c1c565b610db8565b6100bd6102aa366004612909565b610e76565b6100bd6102bd366004612909565b610f12565b5f546001600160a01b031633146102f45760405162461bcd60e51b81526004016102eb90612c53565b60405180910390fd5b60788463ffffffff16101561031b5760405162662dd760e31b815260040160405180910390fd5b6170808463ffffffff1611156103445760405163043e772160e41b815260040160405180910390fd5b610e108363ffffffff16101561036d57604051636793c13960e11b815260040160405180910390fd5b61fd208363ffffffff161115610396576040516326f9fbd360e01b815260040160405180910390fd5b5f6103c9671bc16d674ec800006103bb63ffffffff8816670de0b6b3a7640000612ca1565b6001600160401b0316610f85565b6103e1906a0c097ce7bc90715b34b9f160241b612cc6565b905061040d6001600160401b03821661040863ffffffff8716670de0b6b3a7640000612cd9565b610f85565b506127108361ffff16101561043557604051630997be8760e21b815260040160405180910390fd5b6175308361ffff16111561045c57604051638f651fb760e01b815260040160405180910390fd5b6123288261ffff16111561048357604051638f651fb760e01b815260040160405180910390fd5b600280546001600160401b0383166bffffffffffffffffffffffff199091168117600160401b63ffffffff88169081029190911763ffffffff60601b1916600160601b61ffff88811691820261ffff60701b191692909217600160701b928816928302179094556040805193845260208401929092529082019290925260608101919091527f290b8cac4617961f81e060779d51234b9dbd4aeaca4c6729093e4eb1add321149060800160405180910390a15050505050565b6001600160a01b0381165f90815260056020908152604091829020600381018054845181850281018501909552808552606094859485948594909390918301828280156105b057602002820191905f5260205f20905b81546001600160a01b03168152600190910190602001808311610592575b505050505094508060060180548060200260200160405190810160405280929190818152602001828054801561060357602002820191905f5260205f20905b8154815260200190600101908083116105ef575b505050505093508060050180548060200260200160405190810160405280929190818152602001828054801561065657602002820191905f5260205f20905b815481526020019060010190808311610642575b50505050509250806004018054806020026020016040519081016040528092919081815260200182805480156106d457602002820191905f5260205f20905f905b82829054906101000a900463ffffffff1663ffffffff16815260200190600401906020826003010492830192600103820291508084116106975790505b50505050509150509193509193565b6001546001146107055760405162461bcd60e51b81526004016102eb90612cf0565b600260018190556001600160a01b0382165f90815260056020526040902090810154640100000000900460ff1661074f57604051631d99ddbf60e01b815260040160405180910390fd5b5f6107586110f6565b8354909250600160e01b900463ffffffff16821115905061078f5781546001600160e01b0316600160e01b63ffffffff8316021782555b610799838361119b565b6107b6576040516337c442f360e21b815260040160405180910390fd5b6107bf83611463565b50506001805550565b6001546001146107ea5760405162461bcd60e51b81526004016102eb90612cf0565b600260018190556001600160a01b0386165f90815260056020526040902090810154640100000000900460ff1661083457604051631d99ddbf60e01b815260040160405180910390fd5b5f61083d6110f6565b8354909250600160e01b900463ffffffff1682111590506108745781546001600160e01b0316600160e01b63ffffffff8316021782555b60405163194ee4ad60e21b81526001600160a01b0388169063653b92b4906108ac90600386019060068701908b903390600401612d14565b5f604051808303815f875af11580156108c7573d5f803e3d5ffd5b505050506040513d5f823e601f3d908101601f191682016040526108ee9190810190612e25565b95505f6108fb838861151c565b90505f6109088483611676565b9050333b1561096857604051636584d06f60e11b8152339063cb09a0de9061093a908b9085908b908b90600401612e5e565b5f604051808303815f87803b158015610951575f80fd5b505af1158015610963573d5f803e3d5ffd5b505050505b600184015484546040516341e6322f60e11b81526001600160801b0390911660048201526001600160601b03600160a01b8304166024820152604481018390526001600160a01b038b811660648301523360848301525f9216906383cc645e9060a4016020604051808303815f875af11580156109e7573d5f803e3d5ffd5b505050506040513d601f19601f82011682018060405250810190610a0b9190612ea9565b90508015610a2157610a1c8a611463565b610a3f565b8715610a3f57610a318a8661119b565b15610a3f57610a3f8a611463565b5050600180555050505050505050565b6001600160a01b0382165f9081526005602052604081206002810154640100000000900460ff169081610a88575f809250925050610aa4565b5f610a93828661151c565b9050610a9f8282611676565b935050505b9250929050565b600154600114610acd5760405162461bcd60e51b81526004016102eb90612cf0565b6002600155604051630972932760e21b81526001600160a01b0382811660048301527f000000000000000000000000000000000000000000000000000000000000000016906325ca4c9c90602401602060405180830381865afa158015610b36573d5f803e3d5ffd5b505050506040513d601f19601f82011682018060405250810190610b5a9190612ea9565b610b775760405163fba55c4f60e01b815260040160405180910390fd5b6001600160a01b0381165f9081526005602052604090206002810154640100000000900460ff1615610bbc57604051639331280d60e01b815260040160405180910390fd5b6002818101805464010000000064ff0000000019821681178355835485547bffffffff0000000000000000ffffffffffffffffffffffffffffffff166001600160401b03909116600160801b026001600160e01b031617600160e01b4263ffffffff9081169190910291909117808755855463ffffffff60c01b19909116600160401b909104909116600160c01b021785558354600160601b900461ffff90811664ff0000ffff199093169290921717808355925463ffff000019909316600160701b90930416620100000291909117905560405162e1c50160e81b81523360048201525f908190819081908190819081906001600160a01b038a169063e1c50100906024015f604051808303815f875af1158015610cdd573d5f803e3d5ffd5b505050506040513d5f823e601f3d908101601f19168201604052610d049190810190612fd9565b965096509650965096509650965086886003019080519060200190610d2a9291906126e8565b508551610d409060068a0190602089019061274b565b508451610d569060058a0190602088019061274b565b506001600160a01b038416600160a01b6001600160601b0385160217600189015587546fffffffffffffffffffffffffffffffff19166001600160801b038316178855610da281611704565b8051610a3f9160048b0191602090910190612784565b816001600160a01b031663478426636040518163ffffffff1660e01b8152600401602060405180830381865afa158015610df4573d5f803e3d5ffd5b505050506040513d601f19601f82011682018060405250810190610e1891906130a7565b6001600160a01b0316336001600160a01b031614610e495760405163ea8e4eb560e01b815260040160405180910390fd5b6001600160a01b039182165f90815260046020526040902080546001600160a01b03191691909216179055565b5f546001600160a01b03163314610e9f5760405162461bcd60e51b81526004016102eb90612c53565b5f610ea86110f6565b5090508015610eca5760405163a79b9c8160e01b815260040160405180910390fd5b600380546001600160a01b0319166001600160a01b038416179055610eed6110f6565b50905080610f0e57604051638338a51960e01b815260040160405180910390fd5b5050565b5f546001600160a01b03163314610f3b5760405162461bcd60e51b81526004016102eb90612c53565b5f80546001600160a01b0319166001600160a01b0383169081178255604051909133917f8be0079c531659141344cd1fd0a4f28419497f9722a3daafe3b4186f6b6457e09190a350565b5f815f03610f9c5750670de0b6b3a76400006110f0565b825f03610faa57505f6110f0565b610fbb600160ff1b8410600661180b565b82610fdf610fd668056bc75e2d63100000600160fe1b612cc6565b8410600761180b565b825f82610ffc67016345785d8a0000670de0b6b3a76400006130c2565b128015611021575061101e670de0b6b3a764000067016345785d8a00006130e8565b83125b15611089575f61103084611819565b9050670de0b6b3a764000083611046828461310f565b6110509190613122565b61105a9190613151565b8361106d670de0b6b3a764000084613151565b6110779190613122565b61108191906130e8565b9150506110a0565b8161109384611a57565b61109d9190613122565b90505b6110b2670de0b6b3a764000082613151565b90506110e181680238fd42c5cf03ffff19131580156110da575068070c1cc73b00c800008213155b600861180b565b6110ea81612039565b93505050505b92915050565b5f8060035f9054906101000a90046001600160a01b03166001600160a01b031663feaf968c6040518163ffffffff1660e01b815260040160a060405180830381865afa925050508015611166575060408051601f3d908101601f1916820190925261116391810190613196565b60015b15611197578360010361118b5760405162032b3d60e81b815260040160405180910390fd5b50600195509093505050505b9091565b805460018201545f916001600160801b038116916001600160a01b03811691600160a01b9091046001600160601b0316906111ed90600160c01b810463ffffffff90811691600160e01b9004166131e2565b63ffffffff164211156112c857604051633fc1e69160e01b81526001600160a01b03831690633fc1e6919061122c9089908790869033906004016131ff565b5f604051808303815f87803b158015611243575f80fd5b505af1158015611255573d5f803e3d5ffd5b505050506001600160a01b038281165f908152600460208190526040918290205491516306f81f0d60e51b8152918316908201529087169063df03e1a0906024015f604051808303815f87803b1580156112ad575f80fd5b505af11580156112bf573d5f803e3d5ffd5b50505050611457565b5f866001600160a01b031663c047e5636040518163ffffffff1660e01b8152600401602060405180830381865afa158015611305573d5f803e3d5ffd5b505050506040513d601f19601f820116820180604052508101906113299190613233565b90505f876001600160a01b03166342c8d7156040518163ffffffff1660e01b8152600401602060405180830381865afa158015611368573d5f803e3d5ffd5b505050506040513d601f19601f8201168201806040525081019061138c9190613233565b905080821015806113a55750826001600160601b031681145b1561140e57604051631964be1360e11b81526001600160a01b038516906332c97c26906113dc908b908990889033906004016131ff565b5f604051808303815f87803b1580156113f3575f80fd5b505af1158015611405573d5f803e3d5ffd5b50505050611454565b815f0361144757604051633fc1e69160e01b81526001600160a01b03851690633fc1e691906113dc908b908990889033906004016131ff565b5f955050505050506110f0565b50505b50600195945050505050565b6001600160a01b0381165f9081526005602052604081208181556001810182905560028101805464ffffffffff19169055906114a2600383018261282b565b6114af600483015f612849565b6114bc600583015f61282b565b6114c9600683015f61282b565b5050806001600160a01b031663fe67a54b6040518163ffffffff1660e01b81526004015f604051808303815f87803b158015611503575f80fd5b505af1158015611515573d5f803e3d5ffd5b5050505050565b5f808360050180548060200260200160405190810160405280929190818152602001828054801561156a57602002820191905f5260205f20905b815481526020019060010190808311611556575b505050505090505f846004018054806020026020016040519081016040528092919081815260200182805480156115e957602002820191905f5260205f20905f905b82829054906101000a900463ffffffff1663ffffffff16815260200190600401906020826003010492830192600103820291508084116115ac5790505b505050505090505f5b825181101561166d576116618282815181106116105761161061324a565b602002602001015163ffffffff168483815181106116305761163061324a565b602002602001015187848151811061164a5761164a61324a565b602002602001015161266d9092919063ffffffff16565b909301926001016115f2565b50505092915050565b815460028301545f91670de0b6b3a764000063ffffffff600160e01b830416420381029261ffff6201000082048116936a52b7d2dcc80cd2e40000009385029291909116849003906116d9906001600160401b03600160801b9091041686610f85565b88546001600160801b0316880291029190910102816116fa576116fa612c79565b0495945050505050565b80516060905f805b82811015611740578481815181106117265761172661324a565b60200260200101515f01518201915080600101905061170c565b50816001600160401b0381111561175957611759612a17565b604051908082528060200260200182016040528015611782578160200160208202803683370190505b509250805f03611793575050919050565b5f5b82811015611803576117d461271061ffff16838784815181106117ba576117ba61324a565b60200260200101515f015161266d9092919063ffffffff16565b8482815181106117e6576117e661324a565b63ffffffff90921660209283029190910190910152600101611795565b505050919050565b81610f0e57610f0e81612690565b5f61182c670de0b6b3a764000083613122565b91505f6118476a0c097ce7bc90715b34b9f160241b846130e8565b6a0c097ce7bc90715b34b9f160241b61186081866130c2565b61186a9190613122565b6118749190613151565b90505f6a0c097ce7bc90715b34b9f160241b6118908380613122565b61189a9190613151565b905081806a0c097ce7bc90715b34b9f160241b6118b78483613122565b6118c19190613151565b91506118ce600383613151565b6118d890826130e8565b90506a0c097ce7bc90715b34b9f160241b6118f38484613122565b6118fd9190613151565b915061190a600583613151565b61191490826130e8565b90506a0c097ce7bc90715b34b9f160241b61192f8484613122565b6119399190613151565b9150611946600783613151565b61195090826130e8565b90506a0c097ce7bc90715b34b9f160241b61196b8484613122565b6119759190613151565b9150611982600983613151565b61198c90826130e8565b90506a0c097ce7bc90715b34b9f160241b6119a78484613122565b6119b19190613151565b91506119be600b83613151565b6119c890826130e8565b90506a0c097ce7bc90715b34b9f160241b6119e38484613122565b6119ed9190613151565b91506119fa600d83613151565b611a0490826130e8565b90506a0c097ce7bc90715b34b9f160241b611a1f8484613122565b611a299190613151565b9150611a36600f83613151565b611a4090826130e8565b9050611a4d816002613122565b9695505050505050565b5f670de0b6b3a7640000821215611a9657611a8d82611a7e670de0b6b3a764000080613122565b611a889190613151565b611a57565b6110f09061325e565b5f611ac1670de0b6b3a7640000770195e54c5dd42177f53a27172fa9ec630262827000000000613122565b8312611b0157611ae9770195e54c5dd42177f53a27172fa9ec63026282700000000084613151565b9250611afe6806f05b59d3b2000000826130e8565b90505b611b1f670de0b6b3a76400006b1425982cf597cd205cef7380613122565b8312611b5357611b3b6b1425982cf597cd205cef738084613151565b9250611b506803782dace9d9000000826130e8565b90505b611b5e606482613122565b9050611b6b606484613122565b92506e01855144814a7ff805980ff00840008312611bc8576e01855144814a7ff805980ff0084000611ba668056bc75e2d6310000085613122565b611bb09190613151565b9250611bc568ad78ebc5ac62000000826130e8565b90505b6b02df0ab5a80a22c61ab5a7008312611c1d576b02df0ab5a80a22c61ab5a700611bfb68056bc75e2d6310000085613122565b611c059190613151565b9250611c1a6856bc75e2d631000000826130e8565b90505b693f1fce3da636ea5cf8508312611c6e57693f1fce3da636ea5cf850611c4c68056bc75e2d6310000085613122565b611c569190613151565b9250611c6b682b5e3af16b18800000826130e8565b90505b690127fa27722cc06cc5e28312611cbf57690127fa27722cc06cc5e2611c9d68056bc75e2d6310000085613122565b611ca79190613151565b9250611cbc6815af1d78b58c400000826130e8565b90505b68280e60114edb805d038312611d0e5768280e60114edb805d03611cec68056bc75e2d6310000085613122565b611cf69190613151565b9250611d0b680ad78ebc5ac6200000826130e8565b90505b680ebc5fb417461211108312611d5d57680ebc5fb41746121110611d3b68056bc75e2d6310000085613122565b611d459190613151565b9250611d5a68056bc75e2d63100000826130e8565b90505b6808f00f760a4b2db55d8312611dac576808f00f760a4b2db55d611d8a68056bc75e2d6310000085613122565b611d949190613151565b9250611da96802b5e3af16b1880000826130e8565b90505b6806f5f17757889379378312611dfb576806f5f1775788937937611dd968056bc75e2d6310000085613122565b611de39190613151565b9250611df868015af1d78b58c40000826130e8565b90505b6806248f33704b2866038312611e49576806248f33704b286603611e2868056bc75e2d6310000085613122565b611e329190613151565b9250611e4667ad78ebc5ac620000826130e8565b90505b6805c548670b9510e7ac8312611e97576805c548670b9510e7ac611e7668056bc75e2d6310000085613122565b611e809190613151565b9250611e946756bc75e2d6310000826130e8565b90505b5f611eab68056bc75e2d63100000856130e8565b68056bc75e2d63100000611ebf81876130c2565b611ec99190613122565b611ed39190613151565b90505f68056bc75e2d63100000611eea8380613122565b611ef49190613151565b9050818068056bc75e2d63100000611f0c8483613122565b611f169190613151565b9150611f23600383613151565b611f2d90826130e8565b905068056bc75e2d63100000611f438484613122565b611f4d9190613151565b9150611f5a600583613151565b611f6490826130e8565b905068056bc75e2d63100000611f7a8484613122565b611f849190613151565b9150611f91600783613151565b611f9b90826130e8565b905068056bc75e2d63100000611fb18484613122565b611fbb9190613151565b9150611fc8600983613151565b611fd290826130e8565b905068056bc75e2d63100000611fe88484613122565b611ff29190613151565b9150611fff600b83613151565b61200990826130e8565b9050612016600282613122565b9050606461202482876130e8565b61202e9190613151565b979650505050505050565b5f612067680238fd42c5cf03ffff198312158015612060575068070c1cc73b00c800008313155b600961180b565b5f82121561209c5761208061207b8361325e565b612039565b612092670de0b6b3a764000080613122565b6110f09190613151565b5f6806f05b59d3b200000083126120e2576120c06806f05b59d3b2000000846130c2565b9250770195e54c5dd42177f53a27172fa9ec630262827000000000905061211f565b6803782dace9d9000000831261211b576121056803782dace9d9000000846130c2565b92506b1425982cf597cd205cef7380905061211f565b5060015b61212a606484613122565b925068056bc75e2d6310000068ad78ebc5ac62000000841261218b5761215968ad78ebc5ac62000000856130c2565b935068056bc75e2d6310000061217e6e01855144814a7ff805980ff008400083613122565b6121889190613151565b90505b6856bc75e2d63100000084126121dd576121ae6856bc75e2d631000000856130c2565b935068056bc75e2d631000006121d06b02df0ab5a80a22c61ab5a70083613122565b6121da9190613151565b90505b682b5e3af16b18800000841261222d57612200682b5e3af16b18800000856130c2565b935068056bc75e2d63100000612220693f1fce3da636ea5cf85083613122565b61222a9190613151565b90505b6815af1d78b58c400000841261227d576122506815af1d78b58c400000856130c2565b935068056bc75e2d63100000612270690127fa27722cc06cc5e283613122565b61227a9190613151565b90505b680ad78ebc5ac620000084126122cc576122a0680ad78ebc5ac6200000856130c2565b935068056bc75e2d631000006122bf68280e60114edb805d0383613122565b6122c99190613151565b90505b68056bc75e2d63100000841261231b576122ef68056bc75e2d63100000856130c2565b935068056bc75e2d6310000061230e680ebc5fb4174612111083613122565b6123189190613151565b90505b6802b5e3af16b1880000841261236a5761233e6802b5e3af16b1880000856130c2565b935068056bc75e2d6310000061235d6808f00f760a4b2db55d83613122565b6123679190613151565b90505b68015af1d78b58c4000084126123b95761238d68015af1d78b58c40000856130c2565b935068056bc75e2d631000006123ac6806f5f177578893793783613122565b6123b69190613151565b90505b68056bc75e2d63100000846123ce81836130e8565b9150600268056bc75e2d631000006123e68884613122565b6123f09190613151565b6123fa9190613151565b905061240681836130e8565b9150600368056bc75e2d6310000061241e8884613122565b6124289190613151565b6124329190613151565b905061243e81836130e8565b9150600468056bc75e2d631000006124568884613122565b6124609190613151565b61246a9190613151565b905061247681836130e8565b9150600568056bc75e2d6310000061248e8884613122565b6124989190613151565b6124a29190613151565b90506124ae81836130e8565b9150600668056bc75e2d631000006124c68884613122565b6124d09190613151565b6124da9190613151565b90506124e681836130e8565b9150600768056bc75e2d631000006124fe8884613122565b6125089190613151565b6125129190613151565b905061251e81836130e8565b9150600868056bc75e2d631000006125368884613122565b6125409190613151565b61254a9190613151565b905061255681836130e8565b9150600968056bc75e2d6310000061256e8884613122565b6125789190613151565b6125829190613151565b905061258e81836130e8565b9150600a68056bc75e2d631000006125a68884613122565b6125b09190613151565b6125ba9190613151565b90506125c681836130e8565b9150600b68056bc75e2d631000006125de8884613122565b6125e89190613151565b6125f29190613151565b90506125fe81836130e8565b9150600c68056bc75e2d631000006126168884613122565b6126209190613151565b61262a9190613151565b905061263681836130e8565b915060648468056bc75e2d6310000061264f8587613122565b6126599190613151565b6126639190613122565b611a4d9190613151565b5f825f190484118302158202612681575f80fd5b50910281810615159190040190565b6030600a820601600a820491506030600a830601600a830492506030600a8406018060101b8260081b8401016642414c230000000160c81b9250505062461bcd60e51b5f52602060045260076024528060445260645ffd5b828054828255905f5260205f2090810192821561273b579160200282015b8281111561273b57825182546001600160a01b0319166001600160a01b03909116178255602090920191600190910190612706565b50612747929150612867565b5090565b828054828255905f5260205f2090810192821561273b579160200282015b8281111561273b578251825591602001919060010190612769565b828054828255905f5260205f209060070160089004810192821561273b579160200282015f5b838211156127ee57835183826101000a81548163ffffffff021916908363ffffffff16021790555092602001926004016020816003010492830192600103026127aa565b801561281e5782816101000a81549063ffffffff02191690556004016020816003010492830192600103026127ee565b5050612747929150612867565b5080545f8255905f5260205f20908101906128469190612867565b50565b5080545f825560070160089004905f5260205f209081019061284691905b5b80821115612747575f8155600101612868565b803563ffffffff8116811461288e575f80fd5b919050565b803561ffff8116811461288e575f80fd5b5f805f80608085870312156128b7575f80fd5b6128c08561287b565b93506128ce6020860161287b565b92506128dc60408601612893565b91506128ea60608601612893565b905092959194509250565b6001600160a01b0381168114612846575f80fd5b5f60208284031215612919575f80fd5b8135612924816128f5565b9392505050565b5f815180845260208085019450602084015f5b8381101561295a5781518752958201959082019060010161293e565b509495945050505050565b608080825285519082018190525f9060209060a0840190828901845b828110156129a65781516001600160a01b031684529284019290840190600101612981565b505050838103828501526129ba818861292b565b905083810360408501526129ce818761292b565b848103606086015285518082528387019250908301905f5b81811015612a0857835163ffffffff16835292840192918401916001016129e6565b50909998505050505050505050565b634e487b7160e01b5f52604160045260245ffd5b604051606081016001600160401b0381118282101715612a4d57612a4d612a17565b60405290565b604051601f8201601f191681016001600160401b0381118282101715612a7b57612a7b612a17565b604052919050565b5f6001600160401b03821115612a9b57612a9b612a17565b5060051b60200190565b5f82601f830112612ab4575f80fd5b81356020612ac9612ac483612a83565b612a53565b8083825260208201915060208460051b870101935086841115612aea575f80fd5b602086015b84811015612b065780358352918301918301612aef565b509695505050505050565b8015158114612846575f80fd5b5f805f805f60808688031215612b32575f80fd5b8535612b3d816128f5565b945060208601356001600160401b0380821115612b58575f80fd5b612b6489838a01612aa5565b955060408801359150612b7682612b11565b90935060608701359080821115612b8b575f80fd5b818801915088601f830112612b9e575f80fd5b813581811115612bac575f80fd5b896020828501011115612bbd575f80fd5b9699959850939650602001949392505050565b5f8060408385031215612be1575f80fd5b8235612bec816128f5565b915060208301356001600160401b03811115612c06575f80fd5b612c1285828601612aa5565b9150509250929050565b5f8060408385031215612c2d575f80fd5b8235612c38816128f5565b91506020830135612c48816128f5565b809150509250929050565b6020808252600c908201526b15539055551213d49256915160a21b604082015260600190565b634e487b7160e01b5f52601260045260245ffd5b634e487b7160e01b5f52601160045260245ffd5b5f6001600160401b0380841680612cba57612cba612c79565b92169190910492915050565b5f82612cd457612cd4612c79565b500490565b80820281158282048414176110f0576110f0612c8d565b6020808252600a90820152695245454e5452414e435960b01b604082015260600190565b5f608082016080835280875480835260a085019150885f5260209250825f205f5b82811015612d5a5781546001600160a01b031684529284019260019182019101612d35565b5050508381038285015286548082525f88815283812092840191905b81811015612d9257835483526001938401939285019201612d76565b50508481036040860152612da6818861292b565b9350505050612dc060608301846001600160a01b03169052565b95945050505050565b5f82601f830112612dd8575f80fd5b81516020612de8612ac483612a83565b8083825260208201915060208460051b870101935086841115612e09575f80fd5b602086015b84811015612b065780518352918301918301612e0e565b5f60208284031215612e35575f80fd5b81516001600160401b03811115612e4a575f80fd5b612e5684828501612dc9565b949350505050565b606081525f612e70606083018761292b565b8560208401528281036040840152838152838560208301375f602085830101526020601f19601f86011682010191505095945050505050565b5f60208284031215612eb9575f80fd5b815161292481612b11565b805161288e816128f5565b5f82601f830112612ede575f80fd5b81516020612eee612ac483612a83565b8083825260208201915060208460051b870101935086841115612f0f575f80fd5b602086015b84811015612b06578051612f27816128f5565b8352918301918301612f14565b80516001600160601b038116811461288e575f80fd5b5f82601f830112612f59575f80fd5b81516020612f69612ac483612a83565b82815260609283028501820192828201919087851115612f87575f80fd5b8387015b85811015612fcc5781818a031215612fa1575f80fd5b612fa9612a2b565b815181528582015186820152604080830151908201528452928401928101612f8b565b5090979650505050505050565b5f805f805f805f60e0888a031215612fef575f80fd5b87516001600160401b0380821115613005575f80fd5b6130118b838c01612ecf565b985060208a0151915080821115613026575f80fd5b6130328b838c01612dc9565b975060408a0151915080821115613047575f80fd5b6130538b838c01612dc9565b965061306160608b01612ec4565b955061306f60808b01612f34565b945060a08a0151935060c08a015191508082111561308b575f80fd5b506130988a828b01612f4a565b91505092959891949750929550565b5f602082840312156130b7575f80fd5b8151612924816128f5565b8181035f8312801583831316838312821617156130e1576130e1612c8d565b5092915050565b8082018281125f83128015821682158216171561310757613107612c8d565b505092915050565b5f8261311d5761311d612c79565b500790565b8082025f8212600160ff1b8414161561313d5761313d612c8d565b81810583148215176110f0576110f0612c8d565b5f8261315f5761315f612c79565b600160ff1b82145f198414161561317857613178612c8d565b500590565b805169ffffffffffffffffffff8116811461288e575f80fd5b5f805f805f60a086880312156131aa575f80fd5b6131b38661317d565b94506020860151935060408601519250606086015191506131d66080870161317d565b90509295509295909350565b63ffffffff8181168382160190808211156130e1576130e1612c8d565b6001600160a01b03948516815260208101939093526001600160601b03919091166040830152909116606082015260800190565b5f60208284031215613243575f80fd5b5051919050565b634e487b7160e01b5f52603260045260245ffd5b5f600160ff1b820161327257613272612c8d565b505f039056fea26469706673582212206c39da1c6aab2b324788cc77acce7e2169382f7acb3cfe073e54c7636f357e5a64736f6c63430008160033","linkReferences":{}},"methodIdentifiers":{"auctionInformation(address)":"96ed48e7","bid(address,uint256[],bool,bytes)":"3d8efb06","endAuction(address)":"2872abbc","getAuctionInformationArrays(address)":"189eddd7","getBidPrice(address,uint256[])":"65fd11b4","liquidateAccount(address)":"8ac5d4a3","owner()":"8da5cb5b","setAccountRecipient(address,address)":"c9336021","setAuctionCurveParameters(uint32,uint32,uint16,uint16)":"0c404c2c","setSequencerUptimeOracle(address)":"de5fb7bb","transferOwnership(address)":"f2fde38b"},"id":135}