{"abi":[{"type":"constructor","inputs":[{"name":"lendingPool_","type":"address","internalType":"address"},{"name":"vas","type":"uint256","internalType":"uint256"},{"name":"prefix_","type":"string","internalType":"string"},{"name":"prefixSymbol_","type":"string","internalType":"string"}],"stateMutability":"nonpayable"},{"type":"function","name":"DOMAIN_SEPARATOR","inputs":[],"outputs":[{"name":"","type":"bytes32","internalType":"bytes32"}],"stateMutability":"view"},{"type":"function","name":"LENDING_POOL","inputs":[],"outputs":[{"name":"","type":"address","internalType":"contract ILendingPool"}],"stateMutability":"view"},{"type":"function","name":"allowance","inputs":[{"name":"","type":"address","internalType":"address"},{"name":"","type":"address","internalType":"address"}],"outputs":[{"name":"","type":"uint256","internalType":"uint256"}],"stateMutability":"view"},{"type":"function","name":"approve","inputs":[{"name":"spender","type":"address","internalType":"address"},{"name":"amount","type":"uint256","internalType":"uint256"}],"outputs":[{"name":"","type":"bool","internalType":"bool"}],"stateMutability":"nonpayable"},{"type":"function","name":"asset","inputs":[],"outputs":[{"name":"","type":"address","internalType":"contract ERC20"}],"stateMutability":"view"},{"type":"function","name":"auctionInProgress","inputs":[],"outputs":[{"name":"","type":"bool","internalType":"bool"}],"stateMutability":"view"},{"type":"function","name":"balanceOf","inputs":[{"name":"","type":"address","internalType":"address"}],"outputs":[{"name":"","type":"uint256","internalType":"uint256"}],"stateMutability":"view"},{"type":"function","name":"convertToAssets","inputs":[{"name":"shares","type":"uint256","internalType":"uint256"}],"outputs":[{"name":"assets","type":"uint256","internalType":"uint256"}],"stateMutability":"view"},{"type":"function","name":"convertToAssetsAndSync","inputs":[{"name":"shares","type":"uint256","internalType":"uint256"}],"outputs":[{"name":"assets","type":"uint256","internalType":"uint256"}],"stateMutability":"nonpayable"},{"type":"function","name":"convertToShares","inputs":[{"name":"assets","type":"uint256","internalType":"uint256"}],"outputs":[{"name":"shares","type":"uint256","internalType":"uint256"}],"stateMutability":"view"},{"type":"function","name":"convertToSharesAndSync","inputs":[{"name":"assets","type":"uint256","internalType":"uint256"}],"outputs":[{"name":"shares","type":"uint256","internalType":"uint256"}],"stateMutability":"nonpayable"},{"type":"function","name":"decimals","inputs":[],"outputs":[{"name":"","type":"uint8","internalType":"uint8"}],"stateMutability":"view"},{"type":"function","name":"deposit","inputs":[{"name":"assets","type":"uint256","internalType":"uint256"},{"name":"receiver","type":"address","internalType":"address"}],"outputs":[{"name":"shares","type":"uint256","internalType":"uint256"}],"stateMutability":"nonpayable"},{"type":"function","name":"lock","inputs":[],"outputs":[],"stateMutability":"nonpayable"},{"type":"function","name":"locked","inputs":[],"outputs":[{"name":"","type":"bool","internalType":"bool"}],"stateMutability":"view"},{"type":"function","name":"maxDeposit","inputs":[{"name":"","type":"address","internalType":"address"}],"outputs":[{"name":"maxAssets","type":"uint256","internalType":"uint256"}],"stateMutability":"view"},{"type":"function","name":"maxMint","inputs":[{"name":"","type":"address","internalType":"address"}],"outputs":[{"name":"maxShares","type":"uint256","internalType":"uint256"}],"stateMutability":"view"},{"type":"function","name":"maxRedeem","inputs":[{"name":"owner_","type":"address","internalType":"address"}],"outputs":[{"name":"maxShares","type":"uint256","internalType":"uint256"}],"stateMutability":"view"},{"type":"function","name":"maxWithdraw","inputs":[{"name":"owner_","type":"address","internalType":"address"}],"outputs":[{"name":"maxAssets","type":"uint256","internalType":"uint256"}],"stateMutability":"view"},{"type":"function","name":"mint","inputs":[{"name":"shares","type":"uint256","internalType":"uint256"},{"name":"receiver","type":"address","internalType":"address"}],"outputs":[{"name":"assets","type":"uint256","internalType":"uint256"}],"stateMutability":"nonpayable"},{"type":"function","name":"name","inputs":[],"outputs":[{"name":"","type":"string","internalType":"string"}],"stateMutability":"view"},{"type":"function","name":"nonces","inputs":[{"name":"","type":"address","internalType":"address"}],"outputs":[{"name":"","type":"uint256","internalType":"uint256"}],"stateMutability":"view"},{"type":"function","name":"owner","inputs":[],"outputs":[{"name":"","type":"address","internalType":"address"}],"stateMutability":"view"},{"type":"function","name":"permit","inputs":[{"name":"owner","type":"address","internalType":"address"},{"name":"spender","type":"address","internalType":"address"},{"name":"value","type":"uint256","internalType":"uint256"},{"name":"deadline","type":"uint256","internalType":"uint256"},{"name":"v","type":"uint8","internalType":"uint8"},{"name":"r","type":"bytes32","internalType":"bytes32"},{"name":"s","type":"bytes32","internalType":"bytes32"}],"outputs":[],"stateMutability":"nonpayable"},{"type":"function","name":"previewDeposit","inputs":[{"name":"assets","type":"uint256","internalType":"uint256"}],"outputs":[{"name":"","type":"uint256","internalType":"uint256"}],"stateMutability":"view"},{"type":"function","name":"previewDepositAndSync","inputs":[{"name":"assets","type":"uint256","internalType":"uint256"}],"outputs":[{"name":"shares","type":"uint256","internalType":"uint256"}],"stateMutability":"nonpayable"},{"type":"function","name":"previewMint","inputs":[{"name":"shares","type":"uint256","internalType":"uint256"}],"outputs":[{"name":"assets","type":"uint256","internalType":"uint256"}],"stateMutability":"view"},{"type":"function","name":"previewMintAndSync","inputs":[{"name":"shares","type":"uint256","internalType":"uint256"}],"outputs":[{"name":"assets","type":"uint256","internalType":"uint256"}],"stateMutability":"nonpayable"},{"type":"function","name":"previewRedeem","inputs":[{"name":"shares","type":"uint256","internalType":"uint256"}],"outputs":[{"name":"","type":"uint256","internalType":"uint256"}],"stateMutability":"view"},{"type":"function","name":"previewRedeemAndSync","inputs":[{"name":"shares","type":"uint256","internalType":"uint256"}],"outputs":[{"name":"assets","type":"uint256","internalType":"uint256"}],"stateMutability":"nonpayable"},{"type":"function","name":"previewWithdraw","inputs":[{"name":"assets","type":"uint256","internalType":"uint256"}],"outputs":[{"name":"shares","type":"uint256","internalType":"uint256"}],"stateMutability":"view"},{"type":"function","name":"previewWithdrawAndSync","inputs":[{"name":"assets","type":"uint256","internalType":"uint256"}],"outputs":[{"name":"shares","type":"uint256","internalType":"uint256"}],"stateMutability":"nonpayable"},{"type":"function","name":"redeem","inputs":[{"name":"shares","type":"uint256","internalType":"uint256"},{"name":"receiver","type":"address","internalType":"address"},{"name":"owner_","type":"address","internalType":"address"}],"outputs":[{"name":"assets","type":"uint256","internalType":"uint256"}],"stateMutability":"nonpayable"},{"type":"function","name":"setAuctionInProgress","inputs":[{"name":"auctionInProgress_","type":"bool","internalType":"bool"}],"outputs":[],"stateMutability":"nonpayable"},{"type":"function","name":"symbol","inputs":[],"outputs":[{"name":"","type":"string","internalType":"string"}],"stateMutability":"view"},{"type":"function","name":"totalAssets","inputs":[],"outputs":[{"name":"assets","type":"uint256","internalType":"uint256"}],"stateMutability":"view"},{"type":"function","name":"totalAssetsAndSync","inputs":[],"outputs":[{"name":"assets","type":"uint256","internalType":"uint256"}],"stateMutability":"nonpayable"},{"type":"function","name":"totalSupply","inputs":[],"outputs":[{"name":"","type":"uint256","internalType":"uint256"}],"stateMutability":"view"},{"type":"function","name":"transfer","inputs":[{"name":"to","type":"address","internalType":"address"},{"name":"amount","type":"uint256","internalType":"uint256"}],"outputs":[{"name":"","type":"bool","internalType":"bool"}],"stateMutability":"nonpayable"},{"type":"function","name":"transferFrom","inputs":[{"name":"from","type":"address","internalType":"address"},{"name":"to","type":"address","internalType":"address"},{"name":"amount","type":"uint256","internalType":"uint256"}],"outputs":[{"name":"","type":"bool","internalType":"bool"}],"stateMutability":"nonpayable"},{"type":"function","name":"transferOwnership","inputs":[{"name":"newOwner","type":"address","internalType":"address"}],"outputs":[],"stateMutability":"nonpayable"},{"type":"function","name":"unLock","inputs":[],"outputs":[],"stateMutability":"nonpayable"},{"type":"function","name":"withdraw","inputs":[{"name":"assets","type":"uint256","internalType":"uint256"},{"name":"receiver","type":"address","internalType":"address"},{"name":"owner_","type":"address","internalType":"address"}],"outputs":[{"name":"shares","type":"uint256","internalType":"uint256"}],"stateMutability":"nonpayable"},{"type":"event","name":"Approval","inputs":[{"name":"owner","type":"address","indexed":true,"internalType":"address"},{"name":"spender","type":"address","indexed":true,"internalType":"address"},{"name":"amount","type":"uint256","indexed":false,"internalType":"uint256"}],"anonymous":false},{"type":"event","name":"AuctionInProgressSet","inputs":[{"name":"status","type":"bool","indexed":false,"internalType":"bool"}],"anonymous":false},{"type":"event","name":"Deposit","inputs":[{"name":"caller","type":"address","indexed":true,"internalType":"address"},{"name":"owner","type":"address","indexed":true,"internalType":"address"},{"name":"assets","type":"uint256","indexed":false,"internalType":"uint256"},{"name":"shares","type":"uint256","indexed":false,"internalType":"uint256"}],"anonymous":false},{"type":"event","name":"LockSet","inputs":[{"name":"status","type":"bool","indexed":false,"internalType":"bool"}],"anonymous":false},{"type":"event","name":"OwnershipTransferred","inputs":[{"name":"user","type":"address","indexed":true,"internalType":"address"},{"name":"newOwner","type":"address","indexed":true,"internalType":"address"}],"anonymous":false},{"type":"event","name":"Transfer","inputs":[{"name":"from","type":"address","indexed":true,"internalType":"address"},{"name":"to","type":"address","indexed":true,"internalType":"address"},{"name":"amount","type":"uint256","indexed":false,"internalType":"uint256"}],"anonymous":false},{"type":"event","name":"Withdraw","inputs":[{"name":"caller","type":"address","indexed":true,"internalType":"address"},{"name":"receiver","type":"address","indexed":true,"internalType":"address"},{"name":"owner","type":"address","indexed":true,"internalType":"address"},{"name":"assets","type":"uint256","indexed":false,"internalType":"uint256"},{"name":"shares","type":"uint256","indexed":false,"internalType":"uint256"}],"anonymous":false},{"type":"error","name":"AuctionOngoing","inputs":[]},{"type":"error","name":"Locked","inputs":[]},{"type":"error","name":"Unauthorized","inputs":[]},{"type":"error","name":"ZeroAssets","inputs":[]},{"type":"error","name":"ZeroShares","inputs":[]}],"bytecode":{"object":"0x61014060405234801562000011575f80fd5b5060405162002bdd38038062002bdd8339810160408190526200003491620004ed565b33846001600160a01b03166338d52e0f6040518163ffffffff1660e01b8152600401602060405180830381865afa15801562000072573d5f803e3d5ffd5b505050506040513d601f19601f8201168201806040525081019062000098919062000571565b83866001600160a01b03166338d52e0f6040518163ffffffff1660e01b8152600401602060405180830381865afa158015620000d6573d5f803e3d5ffd5b505050506040513d601f19601f82011682018060405250810190620000fc919062000571565b6001600160a01b03166306fdde036040518163ffffffff1660e01b81526004015f60405180830381865afa15801562000137573d5f803e3d5ffd5b505050506040513d5f823e601f3d908101601f1916820160405262000160919081019062000596565b60405160200162000173929190620005d3565b60405160208183030381529060405283876001600160a01b03166338d52e0f6040518163ffffffff1660e01b8152600401602060405180830381865afa158015620001c0573d5f803e3d5ffd5b505050506040513d601f19601f82011682018060405250810190620001e6919062000571565b6001600160a01b03166395d89b416040518163ffffffff1660e01b81526004015f60405180830381865afa15801562000221573d5f803e3d5ffd5b505050506040513d5f823e601f3d908101601f191682016040526200024a919081019062000596565b6040516020016200025d9291906200061c565b6040516020818303038152906040528181846001600160a01b031663313ce5676040518163ffffffff1660e01b8152600401602060405180830381865afa158015620002ab573d5f803e3d5ffd5b505050506040513d601f19601f82011682018060405250810190620002d191906200065f565b5f620002de84826200070b565b506001620002ed83826200070b565b5060ff81166080524660a0526200030362000375565b60c052505050506001600160a01b0391821660e05250600680546001600160a01b03191691831691821790556040515f907f8be0079c531659141344cd1fd0a4f28419497f9722a3daafe3b4186f6b6457e0908290a35050506001600160a01b03909116610120526101005262000851565b5f7f8b73c3c69bb8fe3d512ecc4cf759cc79239f7b179b0ffacaa9a75d522b39400f5f604051620003a79190620007d7565b6040805191829003822060208301939093528101919091527fc89efdaa54c0f20c7adf612882df0950f5a951637e0307cdcb4c672f298b8bc660608201524660808201523060a082015260c00160405160208183030381529060405280519060200120905090565b6001600160a01b038116811462000424575f80fd5b50565b634e487b7160e01b5f52604160045260245ffd5b5f5b83811015620004575781810151838201526020016200043d565b50505f910152565b5f82601f8301126200046f575f80fd5b81516001600160401b03808211156200048c576200048c62000427565b604051601f8301601f19908116603f01168101908282118183101715620004b757620004b762000427565b81604052838152866020858801011115620004d0575f80fd5b620004e38460208301602089016200043b565b9695505050505050565b5f805f806080858703121562000501575f80fd5b84516200050e816200040f565b6020860151604087015191955093506001600160401b038082111562000532575f80fd5b62000540888389016200045f565b9350606087015191508082111562000556575f80fd5b5062000565878288016200045f565b91505092959194509250565b5f6020828403121562000582575f80fd5b81516200058f816200040f565b9392505050565b5f60208284031215620005a7575f80fd5b81516001600160401b03811115620005bd575f80fd5b620005cb848285016200045f565b949350505050565b5f8351620005e68184602088016200043b565b6a01020b931b0b234b0ab19160ad1b90830190815283516200061081600b8401602088016200043b565b01600b01949350505050565b5f83516200062f8184602088016200043b565b6430b931ab1960d91b9083019081528351620006538160058401602088016200043b565b01600501949350505050565b5f6020828403121562000670575f80fd5b815160ff811681146200058f575f80fd5b600181811c908216806200069657607f821691505b602082108103620006b557634e487b7160e01b5f52602260045260245ffd5b50919050565b601f8211156200070657805f5260205f20601f840160051c81016020851015620006e25750805b601f840160051c820191505b8181101562000703575f8155600101620006ee565b50505b505050565b81516001600160401b0381111562000727576200072762000427565b6200073f8162000738845462000681565b84620006bb565b602080601f83116001811462000775575f84156200075d5750858301515b5f19600386901b1c1916600185901b178555620007cf565b5f85815260208120601f198616915b82811015620007a55788860151825594840194600190910190840162000784565b5085821015620007c357878501515f19600388901b60f8161c191681555b505060018460011b0185555b505050505050565b5f808354620007e68162000681565b60018281168015620008015760018114620008175762000845565b60ff198416875282151583028701945062000845565b875f526020805f205f5b858110156200083c5781548a82015290840190820162000821565b50505082870194505b50929695505050505050565b60805160a05160c05160e051610100516101205161226b620009725f395f81816104a80152818161061e015281816109d901528181610a6501528181610bde01528181610d7501528181611004015281816111cb0152818161129401528181611323015281816114a90152818161154a0152818161188b0152818161195401528181611b6601528181611c060152611cde01525f818161072f015281816107650152818161081f0152818161084601528181610b0e01528181610ca701528181610cce01528181610eab01528181610ee1015281816113c5015281816113ec01528181611430015281816114570152611a0a01525f818161033f01528181611574015261198201525f61098c01525f61095c01525f6102fe015261226b5ff3fe608060405234801561000f575f80fd5b5060043610610260575f3560e01c8063a9059cbb1161014b578063d505accf116100bf578063ed10e33c11610084578063ed10e33c146105b6578063ef8b30f7146105be578063f2fde38b146105d1578063f7485fdc146105e4578063f83d08ba146105f7578063f97e2115146105ff575f80fd5b8063d505accf1461053d578063d905777e14610552578063dd62ed3e14610565578063df3930751461058f578063e6b3b43d146105a3575f80fd5b8063ba08765211610110578063ba087652146104ca578063c63d75b6146104dd578063c6e6f592146104f0578063cc6d205a14610503578063ce96cb7714610516578063cf30901214610529575f80fd5b8063a9059cbb14610457578063ae6f13631461046a578063b3d7f6b91461047d578063b460af9414610490578063b4dcfc77146104a3575f80fd5b8063402d267d116101e257806370a08231116101a757806370a08231146103d85780637ecebe00146103f75780638da5cb5b14610416578063923170641461042957806394bf804d1461043c57806395d89b411461044f575f80fd5b8063402d267d146103795780634cdad5061461038c578063589e65a61461039f5780635ae1dff6146103b25780636e553f65146103c5575f80fd5b806318160ddd1161022857806318160ddd146102dd57806323b872dd146102e6578063313ce567146102f95780633644e5151461033257806338d52e0f1461033a575f80fd5b806301e1d1141461026457806306fdde031461027f57806307a2d13a14610294578063095ea7b3146102a75780630a28a477146102ca575b5f80fd5b61026c610607565b6040519081526020015b60405180910390f35b610287610694565b6040516102769190611eb8565b61026c6102a2366004611f04565b61071f565b6102ba6102b5366004611f36565b6107a0565b6040519015158152602001610276565b61026c6102d8366004611f04565b61080c565b61026c60025481565b6102ba6102f4366004611f5e565b61087f565b6103207f000000000000000000000000000000000000000000000000000000000000000081565b60405160ff9091168152602001610276565b61026c610959565b6103617f000000000000000000000000000000000000000000000000000000000000000081565b6040516001600160a01b039091168152602001610276565b61026c610387366004611f97565b6109ae565b61026c61039a366004611f04565b610af4565b61026c6103ad366004611f04565b610afe565b61026c6103c0366004611f04565b610b35565b61026c6103d3366004611fb0565b610b3f565b61026c6103e6366004611f97565b60036020525f908152604090205481565b61026c610405366004611f97565b60056020525f908152604090205481565b600654610361906001600160a01b031681565b61026c610437366004611f04565b610c94565b61026c61044a366004611fb0565b610cf5565b610287610e21565b6102ba610465366004611f36565b610e2e565b61026c610478366004611f04565b610e91565b61026c61048b366004611f04565b610e9b565b61026c61049e366004611fda565b610f06565b6103617f000000000000000000000000000000000000000000000000000000000000000081565b61026c6104d8366004611fda565b6110ad565b61026c6104eb366004611f97565b611269565b61026c6104fe366004611f04565b6113b2565b61026c610511366004611f04565b61141d565b61026c610524366004611f97565b61147e565b6006546102ba90600160a01b900460ff1681565b61055061054b366004612013565b61161d565b005b61026c610560366004611f97565b611860565b61026c610573366004612080565b600460209081525f928352604080842090915290825290205481565b6006546102ba90600160a81b900460ff1681565b61026c6105b1366004611f04565b6119fa565b610550611a31565b61026c6105cc366004611f04565b611abd565b6105506105df366004611f97565b611ac7565b6105506105f23660046120b8565b611b5b565b610550611bfb565b61026c611cc7565b604051633c4750df60e01b81523060048201525f907f00000000000000000000000000000000000000000000000000000000000000006001600160a01b031690633c4750df90602401602060405180830381865afa15801561066b573d5f803e3d5ffd5b505050506040513d601f19601f8201168201806040525081019061068f91906120d3565b905090565b5f80546106a0906120ea565b80601f01602080910402602001604051908101604052809291908181526020018280546106cc906120ea565b80156107175780601f106106ee57610100808354040283529160200191610717565b820191905f5260205f20905b8154815290600101906020018083116106fa57829003601f168201915b505050505081565b6002545f908015610797576107927f0000000000000000000000000000000000000000000000000000000000000000610756610607565b6107609190612136565b61078a7f000000000000000000000000000000000000000000000000000000000000000084612136565b859190611d2c565b610799565b825b9392505050565b335f8181526004602090815260408083206001600160a01b038716808552925280832085905551919290917f8c5be1e5ebec7d5bd14f71427d1e84f3dd0314c0f7b2291e5b200ac8c7c3b925906107fa9086815260200190565b60405180910390a35060015b92915050565b6002545f908015610797576107926108447f000000000000000000000000000000000000000000000000000000000000000083612136565b7f000000000000000000000000000000000000000000000000000000000000000061086d610607565b6108779190612136565b859190611d47565b6001600160a01b0383165f9081526004602090815260408083203384529091528120545f1981146108d8576108b48382612149565b6001600160a01b0386165f9081526004602090815260408083203384529091529020555b6001600160a01b0385165f90815260036020526040812080548592906108ff908490612149565b90915550506001600160a01b038085165f81815260036020526040908190208054870190555190918716905f80516020612216833981519152906109469087815260200190565b60405180910390a3506001949350505050565b5f7f000000000000000000000000000000000000000000000000000000000000000046146109895761068f611d6a565b507f000000000000000000000000000000000000000000000000000000000000000090565b6006545f90600160a01b900460ff16806109d15750600654600160a81b900460ff165b80610a5757507f00000000000000000000000000000000000000000000000000000000000000006001600160a01b03166302befd246040518163ffffffff1660e01b8152600401602060405180830381865afa158015610a33573d5f803e3d5ffd5b505050506040513d601f19601f82011682018060405250810190610a57919061215c565b15610a6357505f919050565b7f00000000000000000000000000000000000000000000000000000000000000006001600160a01b03166315770f926040518163ffffffff1660e01b8152600401602060405180830381865afa158015610abf573d5f803e3d5ffd5b505050506040513d601f19601f82011682018060405250810190610ae391906120d3565b610806906001600160801b03612149565b5f6108068261071f565b6002545f908015610797576107927f0000000000000000000000000000000000000000000000000000000000000000610756611cc7565b5f61080682610afe565b6006545f90600160a01b900460ff1615610b6c576040516303cb96db60e21b815260040160405180910390fd5b600654600160a81b900460ff1615610b9757604051639331280d60e01b815260040160405180910390fd5b610ba083610e91565b9050805f03610bc257604051639811e0c760e01b815260040160405180910390fd5b6040516309b43f3560e31b8152600481018490523360248201527f00000000000000000000000000000000000000000000000000000000000000006001600160a01b031690634da1f9a8906044015f604051808303815f87803b158015610c27575f80fd5b505af1158015610c39573d5f803e3d5ffd5b50505050610c478282611e02565b60408051848152602081018390526001600160a01b0384169133917fdcbc1c05240f31ff3ad067ef1ee35ce4997762752e3a095284754544f4c709d791015b60405180910390a392915050565b6002545f90801561079757610792610ccc7f000000000000000000000000000000000000000000000000000000000000000083612136565b7f000000000000000000000000000000000000000000000000000000000000000061086d611cc7565b6006545f90600160a01b900460ff1615610d22576040516303cb96db60e21b815260040160405180910390fd5b600654600160a81b900460ff1615610d4d57604051639331280d60e01b815260040160405180910390fd5b610d56836119fa565b6040516309b43f3560e31b8152600481018290523360248201529091507f00000000000000000000000000000000000000000000000000000000000000006001600160a01b031690634da1f9a8906044015f604051808303815f87803b158015610dbe575f80fd5b505af1158015610dd0573d5f803e3d5ffd5b50505050610dde8284611e02565b60408051828152602081018590526001600160a01b0384169133917fdcbc1c05240f31ff3ad067ef1ee35ce4997762752e3a095284754544f4c709d79101610c86565b600180546106a0906120ea565b335f90815260036020526040812080548391908390610e4e908490612149565b90915550506001600160a01b0383165f81815260036020526040908190208054850190555133905f80516020612216833981519152906107fa9086815260200190565b5f6108068261141d565b6002545f908015610797576107927f0000000000000000000000000000000000000000000000000000000000000000610ed2610607565b610edc9190612136565b6108777f000000000000000000000000000000000000000000000000000000000000000084612136565b6006545f90600160a01b900460ff1615610f33576040516303cb96db60e21b815260040160405180910390fd5b600654600160a81b900460ff1615610f5e57604051639331280d60e01b815260040160405180910390fd5b610f6784610c94565b9050336001600160a01b03831614610fd4576001600160a01b0382165f9081526004602090815260408083203384529091529020545f198114610fd257610fae8282612149565b6001600160a01b0384165f9081526004602090815260408083203384529091529020555b505b610fde8282611e59565b60405163062c9b0f60e41b8152600481018590526001600160a01b0384811660248301527f000000000000000000000000000000000000000000000000000000000000000016906362c9b0f0906044015f604051808303815f87803b158015611045575f80fd5b505af1158015611057573d5f803e3d5ffd5b505060408051878152602081018590526001600160a01b0380871694508716925033917ffbde797d201c681b91056529119e0b02407c7bb96a4a2c75c01fc9667232c8db91015b60405180910390a49392505050565b6006545f90600160a01b900460ff16156110da576040516303cb96db60e21b815260040160405180910390fd5b600654600160a81b900460ff161561110557604051639331280d60e01b815260040160405180910390fd5b336001600160a01b03831614611170576001600160a01b0382165f9081526004602090815260408083203384529091529020545f19811461116e5761114a8582612149565b6001600160a01b0384165f9081526004602090815260408083203384529091529020555b505b61117984610b35565b9050805f0361119b57604051630cb65c7760e21b815260040160405180910390fd5b6111a58285611e59565b60405163062c9b0f60e41b8152600481018290526001600160a01b0384811660248301527f000000000000000000000000000000000000000000000000000000000000000016906362c9b0f0906044015f604051808303815f87803b15801561120c575f80fd5b505af115801561121e573d5f803e3d5ffd5b505060408051848152602081018890526001600160a01b0380871694508716925033917ffbde797d201c681b91056529119e0b02407c7bb96a4a2c75c01fc9667232c8db910161109e565b6006545f90600160a01b900460ff168061128c5750600654600160a81b900460ff165b8061131257507f00000000000000000000000000000000000000000000000000000000000000006001600160a01b03166302befd246040518163ffffffff1660e01b8152600401602060405180830381865afa1580156112ee573d5f803e3d5ffd5b505050506040513d601f19601f82011682018060405250810190611312919061215c565b1561131e57505f919050565b6108067f00000000000000000000000000000000000000000000000000000000000000006001600160a01b03166315770f926040518163ffffffff1660e01b8152600401602060405180830381865afa15801561137d573d5f803e3d5ffd5b505050506040513d601f19601f820116820180604052508101906113a191906120d3565b6104fe906001600160801b03612149565b6002545f908015610797576107926113ea7f000000000000000000000000000000000000000000000000000000000000000083612136565b7f0000000000000000000000000000000000000000000000000000000000000000611413610607565b61078a9190612136565b6002545f908015610797576107926114557f000000000000000000000000000000000000000000000000000000000000000083612136565b7f0000000000000000000000000000000000000000000000000000000000000000611413611cc7565b6006545f90600160a01b900460ff16806114a15750600654600160a81b900460ff165b8061152757507f00000000000000000000000000000000000000000000000000000000000000006001600160a01b0316632f3ffb9f6040518163ffffffff1660e01b8152600401602060405180830381865afa158015611503573d5f803e3d5ffd5b505050506040513d601f19601f82011682018060405250810190611527919061215c565b1561153357505f919050565b6040516370a0823160e01b81526001600160a01b037f0000000000000000000000000000000000000000000000000000000000000000811660048301525f917f0000000000000000000000000000000000000000000000000000000000000000909116906370a0823190602401602060405180830381865afa1580156115bb573d5f803e3d5ffd5b505050506040513d601f19601f820116820180604052508101906115df91906120d3565b6001600160a01b0384165f90815260036020526040812054919250906116049061071f565b90508082106116135780611615565b815b949350505050565b428410156116725760405162461bcd60e51b815260206004820152601760248201527f5045524d49545f444541444c494e455f4558504952454400000000000000000060448201526064015b60405180910390fd5b5f600161167d610959565b6001600160a01b038a81165f8181526005602090815260409182902080546001810190915582517f6e71edae12b1b97f4d1f60370fef10105fa2faae0126114a169c64845d6126c98184015280840194909452938d166060840152608083018c905260a083019390935260c08083018b90528151808403909101815260e08301909152805192019190912061190160f01b6101008301526101028201929092526101228101919091526101420160408051601f1981840301815282825280516020918201205f84529083018083525260ff871690820152606081018590526080810184905260a0016020604051602081039080840390855afa158015611785573d5f803e3d5ffd5b5050604051601f1901519150506001600160a01b038116158015906117bb5750876001600160a01b0316816001600160a01b0316145b6117f85760405162461bcd60e51b815260206004820152600e60248201526d24a72b20a624a22fa9a4a3a722a960911b6044820152606401611669565b6001600160a01b039081165f9081526004602090815260408083208a8516808552908352928190208990555188815291928a16917f8c5be1e5ebec7d5bd14f71427d1e84f3dd0314c0f7b2291e5b200ac8c7c3b925910160405180910390a350505050505050565b6006545f90600160a01b900460ff16806118835750600654600160a81b900460ff165b8061190957507f00000000000000000000000000000000000000000000000000000000000000006001600160a01b0316632f3ffb9f6040518163ffffffff1660e01b8152600401602060405180830381865afa1580156118e5573d5f803e3d5ffd5b505050506040513d601f19601f82011682018060405250810190611909919061215c565b1561191557505f919050565b6001600160a01b0382165f908152600360205260408120549081900361193d57505f92915050565b6040516370a0823160e01b81526001600160a01b037f0000000000000000000000000000000000000000000000000000000000000000811660048301525f916119eb917f000000000000000000000000000000000000000000000000000000000000000016906370a0823190602401602060405180830381865afa1580156119c7573d5f803e3d5ffd5b505050506040513d601f19601f820116820180604052508101906104fe91906120d3565b90508181106107995781611615565b6002545f908015610797576107927f0000000000000000000000000000000000000000000000000000000000000000610ed2611cc7565b6006546001600160a01b03163314611a7a5760405162461bcd60e51b815260206004820152600c60248201526b15539055551213d49256915160a21b6044820152606401611669565b6006805460ff60a01b191690556040515f81527f504bad97b429ba8801a2ae8e780de5f2f9a21c088094829ab3054a0aa66c00a2906020015b60405180910390a1565b5f610806826113b2565b6006546001600160a01b03163314611b105760405162461bcd60e51b815260206004820152600c60248201526b15539055551213d49256915160a21b6044820152606401611669565b600680546001600160a01b0319166001600160a01b03831690811790915560405133907f8be0079c531659141344cd1fd0a4f28419497f9722a3daafe3b4186f6b6457e0905f90a350565b336001600160a01b037f00000000000000000000000000000000000000000000000000000000000000001614611ba3576040516282b42960e81b815260040160405180910390fd5b60068054821515600160a81b0260ff60a81b199091161790556040517f88280dda54f0ee7f33a0264934c961a815990394874ca2ed0731f4c7b988929890611bf090831515815260200190565b60405180910390a150565b336001600160a01b037f00000000000000000000000000000000000000000000000000000000000000001614611c43576040516282b42960e81b815260040160405180910390fd5b6006805460ff60a01b1916600160a01b179055604051600181527f504bad97b429ba8801a2ae8e780de5f2f9a21c088094829ab3054a0aa66c00a29060200160405180910390a16006805460ff60a81b191690556040515f81527f88280dda54f0ee7f33a0264934c961a815990394874ca2ed0731f4c7b988929890602001611ab3565b60405163894bacc960e01b81523060048201525f907f00000000000000000000000000000000000000000000000000000000000000006001600160a01b03169063894bacc9906024016020604051808303815f875af115801561066b573d5f803e3d5ffd5b5f825f190484118302158202611d40575f80fd5b5091020490565b5f825f190484118302158202611d5b575f80fd5b50910281810615159190040190565b5f7f8b73c3c69bb8fe3d512ecc4cf759cc79239f7b179b0ffacaa9a75d522b39400f5f604051611d9a9190612177565b6040805191829003822060208301939093528101919091527fc89efdaa54c0f20c7adf612882df0950f5a951637e0307cdcb4c672f298b8bc660608201524660808201523060a082015260c00160405160208183030381529060405280519060200120905090565b8060025f828254611e139190612136565b90915550506001600160a01b0382165f818152600360209081526040808320805486019055518481525f8051602061221683398151915291015b60405180910390a35050565b6001600160a01b0382165f9081526003602052604081208054839290611e80908490612149565b90915550506002805482900390556040518181525f906001600160a01b038416905f8051602061221683398151915290602001611e4d565b5f602080835283518060208501525f5b81811015611ee457858101830151858201604001528201611ec8565b505f604082860101526040601f19601f8301168501019250505092915050565b5f60208284031215611f14575f80fd5b5035919050565b80356001600160a01b0381168114611f31575f80fd5b919050565b5f8060408385031215611f47575f80fd5b611f5083611f1b565b946020939093013593505050565b5f805f60608486031215611f70575f80fd5b611f7984611f1b565b9250611f8760208501611f1b565b9150604084013590509250925092565b5f60208284031215611fa7575f80fd5b61079982611f1b565b5f8060408385031215611fc1575f80fd5b82359150611fd160208401611f1b565b90509250929050565b5f805f60608486031215611fec575f80fd5b83359250611ffc60208501611f1b565b915061200a60408501611f1b565b90509250925092565b5f805f805f805f60e0888a031215612029575f80fd5b61203288611f1b565b965061204060208901611f1b565b95506040880135945060608801359350608088013560ff81168114612063575f80fd5b9699959850939692959460a0840135945060c09093013592915050565b5f8060408385031215612091575f80fd5b61209a83611f1b565b9150611fd160208401611f1b565b80151581146120b5575f80fd5b50565b5f602082840312156120c8575f80fd5b8135610799816120a8565b5f602082840312156120e3575f80fd5b5051919050565b600181811c908216806120fe57607f821691505b60208210810361211c57634e487b7160e01b5f52602260045260245ffd5b50919050565b634e487b7160e01b5f52601160045260245ffd5b8082018082111561080657610806612122565b8181038181111561080657610806612122565b5f6020828403121561216c575f80fd5b8151610799816120a8565b5f8083545f60018260011c9150600183168061219457607f831692505b602080841082036121b357634e487b7160e01b5f52602260045260245ffd5b8180156121c757600181146121dc57612207565b60ff1986168952841515850289019650612207565b5f8a8152602090205f5b868110156121ff5781548b8201529085019083016121e6565b505084890196505b50949897505050505050505056feddf252ad1be2c89b69c2b068fc378daa952ba7f163c4a11628f55a4df523b3efa2646970667358221220346a19b5cc619867a29d0dd36ede91eb29d1f95cde6af865db802f7950a3a7f864736f6c63430008160033","linkReferences":{}},"methodIdentifiers":{"DOMAIN_SEPARATOR()":"3644e515","LENDING_POOL()":"b4dcfc77","allowance(address,address)":"dd62ed3e","approve(address,uint256)":"095ea7b3","asset()":"38d52e0f","auctionInProgress()":"df393075","balanceOf(address)":"70a08231","convertToAssets(uint256)":"07a2d13a","convertToAssetsAndSync(uint256)":"589e65a6","convertToShares(uint256)":"c6e6f592","convertToSharesAndSync(uint256)":"cc6d205a","decimals()":"313ce567","deposit(uint256,address)":"6e553f65","lock()":"f83d08ba","locked()":"cf309012","maxDeposit(address)":"402d267d","maxMint(address)":"c63d75b6","maxRedeem(address)":"d905777e","maxWithdraw(address)":"ce96cb77","mint(uint256,address)":"94bf804d","name()":"06fdde03","nonces(address)":"7ecebe00","owner()":"8da5cb5b","permit(address,address,uint256,uint256,uint8,bytes32,bytes32)":"d505accf","previewDeposit(uint256)":"ef8b30f7","previewDepositAndSync(uint256)":"ae6f1363","previewMint(uint256)":"b3d7f6b9","previewMintAndSync(uint256)":"e6b3b43d","previewRedeem(uint256)":"4cdad506","previewRedeemAndSync(uint256)":"5ae1dff6","previewWithdraw(uint256)":"0a28a477","previewWithdrawAndSync(uint256)":"92317064","redeem(uint256,address,address)":"ba087652","setAuctionInProgress(bool)":"f7485fdc","symbol()":"95d89b41","totalAssets()":"01e1d114","totalAssetsAndSync()":"f97e2115","totalSupply()":"18160ddd","transfer(address,uint256)":"a9059cbb","transferFrom(address,address,uint256)":"23b872dd","transferOwnership(address)":"f2fde38b","unLock()":"ed10e33c","withdraw(uint256,address,address)":"b460af94"},"id":136}